:020000041000EA
:1000000000B5324B212058609868022188439860DF
:10001000D860186158612E4B002199600221596106
:100020000121F02299502B49196001219960352056
:1000300000F044F80222904214D00621196600F024
:1000400034F8196E01211966002018661A6600F04E
:100050002CF8196E196E196E052000F02FF8012189
:100060000842F9D1002199601B49196000215960AB
:100070001A491B48016001219960EB211966A021F2
:10008000196600F012F800219960164914480160C1
:100090000121996001BC002800D000471248134993
:1000A000086003C880F30888084703B5996A0420EC
:1000B0000142FBD001200142F8D103BD02B5186610
:1000C0001866FFF7F2FF186E186E02BD00000240BE
:1000D000000000180000070000035F00212200005C
:1000E000F4000018222000A00001001008ED00E03C
:1000F00000000000000000000000000074B24E7A12
:1001000000200420F7010010C3010010C5010010F9
:10011000C1010010C1010010C1010010C101001097
:10012000C1010010C1010010C1010010C701001081
:10013000C1010010C1010010C9010010CB01001065
:10014000CD010010CD010010CD010010CD01001037
:10015000CD010010CD010010CD010010CD01001027
:10016000CD010010CD010010CD010010CD01001017
:10017000CD010010CD010010CD010010CD01001007
:10018000CD010010CD010010CD010010CD010010F7
:10019000CD010010CD010010CD010010CD010010E7
:1001A000CD010010CD010010CD010010CD010010D7
:1001B000CD010010CD010010CD010010CD010010C7
:1001C00000BE00BE00BE00BE00BE00BE00F04BF888
:1001D000103800BEF2EB88716C0801109008011015
:1001E0003402001090A31AE700202149086006C8D5
:1001F00081F3088810471F48006800282FD10DA4FC
:100200000ECC002902D000F012F8F9E71A491B4A77
:10021000002000E001C19142FCD1194988471949E9
:1002200088471949884700BEFDE701C901C29A42C3
:10023000FBD3704790080110C0000020AC020020E2
:100240007C0A011000000420000004207C0A011038
:1002500000100420001004200000000070470B482C
:1002600008F0B2F80047EFF30580C0B27047000015
:1002700008ED00E0000000D0B0020020180E0220BF
:10028000A569001031030010616900105756000085
:1002900006005250ABB3605388F60010060052506F
:1002A000861C030298F60010060052505422A29DAC
:1002B000A4F6001005005250DE65F4687C0A0110B7
:1002C000F8B5C04610B5064C2378002B07D1054B76
:1002D000002B02D0044800E000BF0123237010BDB2
:1002E000B00300200000000020D30010044B10B524
:1002F000002B03D00349044800E000BF10BDC046F6
:1003000000000000B403002020D3001010B509F055
:10031000E7F8192005F092FBD0231B0680229204F7
:100320005A625A6110BD10B500F000F910BD00000E
:1003300010B5FFF7EBFF0449044809F0C5F8FFF7D3
:10034000F2FF002010BDC04620D300102CD30010B7
:1003500010B5034B034A9D21034806F005FBC04638
:100360003CD30010A4D300105CD3001010B5034B95
:10037000034AAB21034806F0F7FAC0463CD300100D
:1003800084D300105CD3001010B503F0ADFF01F072
:10039000A7F801F0B1FC01F079FF03F045F910BDB9
:1003A00070B582B00BF0D0F80190002600244A4DC1
:1003B00000E0C825290001A80BF052FA02F0DAFB90
:1003C000012801D001231C4305F00CFB012801D0BA
:1003D00002231C4305F032F9012801D008231C43F5
:1003E00000F0FAFC012801D010231C4304F084FE25
:1003F000012801D020231C4300F0A4FF012801D0D4
:1004000040231C4304F012FF012801D080231C4329
:1004100005F00EF8012802D080235B001C43280061
:1004200003F028FF012802D080239B001C4300F02A
:10043000F3FD012802D08023DB001C4301F03CF8CF
:10044000012802D080231B011C4301F0ADFC0128D0
:1004500002D080235B011C4301F064FF012802D01D
:1004600080239B011C4303F049F9012802D080231B
:10047000DB011C43194B1A68194B1B689A4223D0A5
:10048000174B1A68154B1A60164B1A68164B1B68E7
:100490009A421DD0144B1A68124B1A60D0231B06C7
:1004A00080229204DA610136002C83D00F4B1B6846
:1004B000A34200D17DE7220031000D4809F004F885
:1004C0000A4B1C60C82575E780231B021C43D7E735
:1004D00080235B021C43DDE7B80B0000140B0220F5
:1004E000400B0220180B0220440B0220FC0A0220C1
:1004F000C4D3001010B5054B984203D000200AF079
:1005000049FE10BD00F0E7F9F8E7C04621436587D2
:1005100010B5054B984203D000200AF03BFE10BDF9
:1005200000F09EF9F8E7C0467856341230B583B033
:10053000384808F097FF384808F094FF02F032F985
:10054000364808F08FFF022004F0CEFF344808F050
:1005500089FF00F00DFC334808F084FF00F016FD21
:10056000314808F07FFF002004F060FD2F4808F0BC
:1005700079FF00F0A7FE2E4808F074FF012004F078
:10058000D9FE2C4808F06EFF002005F0EFF92A484C
:1005900008F068FF322003F03DFE284808F062FFB3
:1005A000002000F06DFF264808F05CFF01F042FBE0
:1005B000244808F057FF01F001FE234808F052FFDD
:1005C00003F016F8214808F04DFF80256D00002447
:1005D000019400941E4B2A001E491F480AF0AAFDF0
:1005E000019400941D4B2A001D491E480AF0A2FDEB
:1005F00001941F23009300232A001B491B480AF083
:1006000099FD032004F000FE194808F02BFF0AF0C2
:1006100051FFFEE7E8D30010FCD3001010D4001007
:1006200024D4001034D400104CD4001060D4001036
:1006300074D4001084D4001090D400109CD4001006
:10064000B0D40010C0D40010D8D40010E8D40010EA
:1006500078563412F8D40010110500102143658734
:1006600000D50010F504001008D50010A1030010FB
:1006700010D5001070B5002822D102F00DF9040049
:1006800005F04EFE02000B1E20DB05000E00FA20D6
:100690004000002112184B419E4202D804D19542DD
:1006A00002D901225242D317002B15DB002005F09E
:1006B0008BFE002C03D00B4B802252051A6070BDBC
:1006C000094B0A4A32210A4806F04EF9094B0A4AF8
:1006D0003F210A4806F048F9064B074A3F210748E0
:1006E00006F042F904ED00E01CD50010F0D5001032
:1006F00028D5001058D50010D8D5001074D500109A
:1007000070B5012822D102F05BF9040005F008FE63
:1007100002000B1E20DB05000E00E820FF30002148
:1007200012184B419E4202D804D1954202D90122AF
:100730005242D317002B15DB012005F045FE002C9B
:1007400003D00B4B802252051A6070BD094B0A4A38
:100750003A210A4806F008F9094B0A4A3F210A489B
:1007600006F002F9064B074A3F21074806F0FCF85D
:1007700004ED00E0B8D50010C4D5001028D5001055
:1007800058D50010D8D5001074D5001070B50020D1
:1007900005F0BAFD012005F0B7FD72B6002100207A
:1007A00006F024FC4021012006F020FC274900200F
:1007B00005F0C2FD2649012005F0BEFD05F0B0FDA3
:1007C00002000B1E29DBFA246400002512196B417C
:1007D000994202D804D1904202D901225242D31741
:1007E000002B20DB002005F0EFFD05F099FD020055
:1007F0000B1E1EDBE824FF34002512196B419942C1
:1008000002D804D1904202D901225242D317002BC0
:1008100015DB012005F0D8FD70BD0E4B0E4A3F21BF
:100820000E4806F0A1F80B4B0B4A3F210B4806F08F
:100830009BF8084B084A3F21084806F095F8054BFD
:10084000054A3F21054806F08FF8C046750600109E
:100850000107001058D50010D8D5001074D500102D
:10086000652166226723682469256A266B276C2028
:1008700080466D2081466E2082466F208346702020
:1008800084466420642824D1652922D1662A20D197
:10089000672B1ED1682C1CD1692D1AD16A2E18D154
:1008A0006B2F16D16C20804513D16D20814510D15E
:1008B0006E2082450DD16F2083450AD1702084457A
:1008C00007D102B4214801680131016002BC6420F3
:1008D000D8E7FEE7C04601210222032304240525B0
:1008E0000626072708208046092081460A208246DE
:1008F0000B2083460C2084460A200A2824D1012993
:1009000022D1022A20D1032B1ED1042C1CD1052D6B
:100910001AD1062E18D1072F16D10820804513D1E1
:100920000920814510D10A2082450DD10B20834535
:100930000AD10C20844507D102B405480168013171
:10094000016002BC0A20D8E7FEE7C046400B022047
:10095000440B022070B582B009E0274B01221A60D7
:10096000264B55221A60264A136801331360002073
:100970000BF0E6F80AF0E8FD0400002301931F4B9A
:1009800055221A601F4B186800235A3201A909F03A
:1009900053FC002802D0184B01221A600AF0D4FD43
:1009A000001BAE2802D8144B01221A60BE2802D9BF
:1009B000114B01221A60114D55262E6000200BF0BC
:1009C000BFF80AF0C1FD04002E600E4B1868AF227C
:1009D00001A909F04DFE002802D0074B01221A6040
:1009E0000AF0B2FD001BAE2802D8034B01221A60A8
:1009F000BE28B5D9B1E7C046940C02209C0D022058
:100A0000AC0D0220F00D022070B582B01E21002036
:100A10000AF084FC0AF098FD0400AF200AF07CFF85
:100A20000AF092FD001BB62802D92F4B01221A6052
:100A30000AF08AFD06000190002504E02B4A1368A5
:100A4000013313600135042D11D8AB005B191C0173
:100A5000E41AA4194B2101A80AF002FF0AF074FD60
:100A6000041BB62CEAD9204B01221A60E6E74B2181
:100A700001A80AF0F5FE012802D01B4B01221A60E2
:100A800025200AF049FF4B2101A80AF0E9FE0128C0
:100A900002D0154B01221A604B200AF03DFF4B217A
:100AA00001A80AF0DDFE002802D00F4B01221A60D7
:100AB0004B2101A80AF0D4FE012802D00A4B0122E2
:100AC0001A6052200AF028FF4B2101A80AF0C8FE44
:100AD000002802D0044B01221A601D2100200AF0D8
:100AE0001DFC02B070BDC046940C0220580D0220BF
:100AF00030B583B02DE1019B01330193019B042BA1
:100B00001EDC0A249C400AF01FFD0500934B186868
:100B10002200694609F0ACFD002802D0904B01226A
:100B20001A600AF011FD401B844202D98C4B01224D
:100B30001A600F348442DED2894B01221A60DAE750
:100B40000023019305E0864B01221A60019B0133CB
:100B50000193019B042B09DC804B186800230022C1
:100B600001A909F069FB0128EDD1EFE7002301930A
:100B700002E0019B01330193019B042B1FDC0A243B
:100B80009C400AF0E1FC0500744B18680023220029
:100B900001A909F051FB002802D0714B01221A6013
:100BA0000AF0D2FC401B844202D96D4B01221A602C
:100BB0000F348442DDD26A4B01221A60D9E7694BB7
:100BC00000221A60684B18680AF022FC02E0142028
:100BD0000AF0A2FE634B1B68552BF8D114200AF0D3
:100BE0009BFE00235F4A1360019323E05C4B0122CC
:100BF0001A605A4B18680023002201A909F01CFB57
:100C0000012802D0564B01221A60564B1B68552B07
:100C10001CD0554B18681F210AF080FB514B1B68F4
:100C2000552B17D0504B18681C210AF077FB019BFD
:100C300001330193019B042B13DC484B18680022FD
:100C4000694609F015FD0128D0D1D2E7444B0122B5
:100C50001A60DEE7424B01221A60E3E714200AF033
:100C60005BFE404B1B68552BF8D114200AF054FE54
:100C700000233C4A1360019305E0394B01221A60BE
:100C8000019B01330193019B042B08DC334B186853
:100C90000022694609F0ECFC0128EED1F0E7324B66
:100CA00018680AF0B5FB02E014200AF035FE2D4B5F
:100CB0001B68552BF8D114200AF02EFE0023294A78
:100CC0001360019322E0264B01221A60234B18681F
:100CD0000022694609F0CCFC012802D0204B0122F9
:100CE0001A60204B1B68552B1DD01F4B18681F2105
:100CF0000AF014FB1B4B1B68552B18D01A4B1868B5
:100D00001C210AF00BFB019B01330193019B042B77
:100D100014DC124B18680023002201A909F08CFA98
:100D20000128D0D1D2E70E4B01221A60DDE70C4B2F
:100D300001221A60E2E714200AF0EEFD094B1B685D
:100D4000552BF8D114200AF0E7FD084A1368013347
:100D50001360FFF759FE00230193CFE6F00D022048
:100D6000940C02209C0D0220A80D0220580D022098
:100D700010B582B000220421052009F0C7F90F4BFD
:100D80001860002818D00E4909F0AEFF80246400D6
:100D9000002301931D3300930023220009490A48D0
:100DA0000AF0C8F9094B01931C2300930023220089
:100DB000074908480AF0BEF902B010BDF00D022044
:100DC00004D6001018D60010F10A0010A80D022059
:100DD00020D60010550900100F4B1A680F4B1B68E6
:100DE0009A4213D001200E4B1A680E4B1B689A4290
:100DF0000ED00D4B1B68012B0CD0094B1A68094B08
:100E00001A60054B1A68054B1A6070470020EAE724
:100E10000020EEE70020F0E7580D0220E80C022049
:100E2000AC0D0220EC0C0220940C022070B50500E1
:100E30000E00002109F0C4FC012801D000240DE0BF
:100E4000164B01221A60F9E7154B164AC5211648C0
:100E500005F08AFD3368013333600134C72C10D8A4
:100E6000280009F0F5FEA042EED100230022002167
:100E7000280009F0E1F90128ECD0084B01221A60A2
:100E8000E8E7002300220021280009F0D5F9012815
:100E900000D070BD014B01221A60FAE7840C0220D9
:100EA00028D6001080D700106CD6001070B5050051
:100EB0000E0000230022002109F0BEF9012801D014
:100EC00000240DE01B4B01221A60F9E71A4B1B4A64
:100ED0009C211B4805F048FD336801333360013421
:100EE000C72C10D8280009F0B3FEC8231B1B98425A
:100EF000ECD10021280009F063FC0128ECD00D4B57
:100F000001221A60E8E7280009F0A2FE002806D1B5
:100F10000021280009F054FC012806D070BD094BBF
:100F2000064AAD21064805F01FFD024B01221A605A
:100F3000F4E7C046840C0220A4D6001064D7001049
:100F40006CD60010F4D6001070B505004368AA2BCB
:100F500010D00021286809F033FC012810D02C00A3
:100F6000083421002868FFF761FF21002868FFF797
:100F70009DFFF4E7010008310068FFF797FFE8E7FD
:100F8000014B01221A60EAE7840C0220F0B583B01D
:100F9000C821C82009F034F9194C2060AA236360E5
:100FA0000025A5600021C82009F02AF90300E060AF
:100FB00025616561206800281ED0124909F094FE61
:100FC0000F4C1149E06809F08FFE80277F000F4E1B
:100FD00000250195009523003A000D4930000AF0E4
:100FE000A9F823000C33019500953A000949300017
:100FF0000AF0A0F803B0F0BD002BDED1FAE7C0463E
:10100000280D022034D7001044D70010490F0010DB
:1010100054D700105CD700100F4B1B68002B15D164
:1010200001200E4B9A680E4B1B689A4210D00B4B56
:101030009A680B4B1A60094B5A690A4B1B689A4213
:1010400008D0064B5A69074B1A6070470020E8E742
:101050000020F0E70020F8E7840C0220280D022091
:10106000880B02208C0B022010B510E08F213E4B24
:101070003E4A49003E4805F077FC20213D4B3B4A63
:10108000FF313B4805F070FC3B4B01221A603B4BA3
:101090001868002109F064FC0128F8D1384B186861
:1010A0000AF0D8F80328E1D1364B18680AF0D2F8D4
:1010B0000328E2D1344B1B68012BE5D1334B1B686D
:1010C000012BE1D1324A1368013313602D4B1868AC
:1010D0000AF09EF92A4B18680AF09AF92A4B1B6805
:1010E000012B03D0294B1B68012B02D1224B01227B
:1010F0001A6000200AF002F9022820D1204B18685B
:101100000AF0A8F8022821D11E4B18680AF0A2F8AC
:10111000022822D1194B186809F06EF9012802D073
:10112000154B01221A6000200AF0E8F80028AED022
:101130006021184B0D4AFF310D4805F015FC4C217C
:10114000154B0A4AFF310A4805F00EFC5221134B99
:10115000064AFF31064805F007FCA921104B034A57
:101160004900034805F000FC9CD7001058D9001036
:10117000D4D700100CD80010980C0220000D0220CB
:10118000540C0220440C0220400C0220500C02207F
:10119000BC0B0220ECD8001040D8001084D80010FE
:1011A000B8D8001010B520E0194B1B68012B03D0F4
:1011B000184B01221A6023E0174B186809F01CF93C
:1011C000012802D0134B01221A60144C0123236022
:1011D00000200AF0B5FC0023236011E00D4B012232
:1011E0001A600F4A13680133136002210A4B186812
:1011F000494209F0B5FB0128D6D0064B01221A60FE
:10120000074B1B680133074A12689342E6D1E8E7AF
:10121000500C0220980C0220000D0220400C0220ED
:10122000640B02206C0B022010B53BE0214B012225
:101230001A603DE014200AF06FFB0134092C0AD833
:101240001D4B18680F2109F08BFB0128F2D0194BB8
:1012500001221A60EEE7002400E00134092C0CD8CA
:1012600014200AF059FB144B186809F0C5F801283E
:10127000F3D0104B01221A60EFE70F4B186809F00A
:10128000BBF8012802D10B4B01221A600B4A1368EC
:10129000013313600A4C0123236000200AF050FC44
:1012A00000232360044B186809F0A6F80128BDD07C
:1012B0000024C3E7980C0220000D02206C0B0220D2
:1012C000500C022010B582B0042009F089F8134BAD
:1012D0001860002820D0124909F006FD802464001F
:1012E000104B019302230093002322000E490F4864
:1012F00009F020FF0E4B01930123009300232200ED
:101300000C490D4809F016FF0023019300932200B9
:101310000A490B4809F00EFF02B010BD000D022073
:1013200030D90010540C022040D9001029120010AE
:10133000440C022048D90010A511001050D900100B
:1013400069100010184B1A68184B1B689A421DD080
:10135000164B1A68144B1A60154B1A68154B1B680C
:101360009A4217D0134B1A68114B1A60124B1A6825
:10137000124B1B689A4211D0104B1A680E4B1A6020
:101380000F4B1B68012B0DD0012070470C4B012225
:101390001A60E1E70A4B01221A60E7E7084B0122D5
:1013A0001A60EDE70020F0E7840B02206C0B0220AE
:1013B000800B0220640B0220A00B0220BC0B022039
:1013C000980C022030B583B000220421012008F0DF
:1013D0009DFE041E01D0012506E0254B254A5A2119
:1013E000254805F0C1FA00250A230193083B002295
:1013F00001A9200008F020FF00230193002201A989
:10140000200009F035F9019B0A2B00D000250023AC
:10141000009302E0009B01330093009B042B16D83D
:10142000022300226946200008F006FF002201A9DD
:10143000200009F0BDFA019B009A934200D00025DC
:10144000200009F005FC0128E4D00025E2E7002295
:1014500001A9200009F00CF9200009F0F9FB00288F
:10146000C1D1002DC0D0054A136801331360BBE71A
:1014700078D90010F4D9001084D900101C0B022078
:1014800010B582B0040000220421012008F03EFEC5
:10149000064B1860802200230193009452000449F7
:1014A000044809F047FE02B010BDC046D00C02202F
:1014B000C0D90010C5130010074B1868012804D0CC
:1014C0000020064B00221A607047044B1B68002B5B
:1014D000F7D10020F5E7C046C80100201C0B022010
:1014E00000B585B00A2303930A3302931F4B186893
:1014F000002812D01E4B1B68012B25D0022B29D0AF
:10150000002B10D01A4A136801331360022B02D942
:10151000130000221A6005B000BD164B164AB9210F
:10152000164805F021FA0233002203A908F08AFFC9
:101530000E4B186801A909F049FB019B0A2BE1D069
:101540000F4B00221A60DDE70223002202A908F0F7
:1015500079FFD7E7002201A909F0D0FA019B142BEB
:10156000D0D0074B00221A60CCE7C046D00C022036
:10157000E40A0220C8D90010D4D9001084D9001080
:10158000C801002010B582B00AF03AFD0B4B1B6871
:10159000834211D0052400200AF0D2FA084B1868C3
:1015A00001235B42009300230122210008F00EFA80
:1015B0000028F0D102B010BD0324ECE7D00D0220CA
:1015C0009C0C022010B582B00400FFF7DBFF002066
:1015D0000AF0B6FA264B186800230F22210008F003
:1015E00013FB0F2303400F2B2DD00123204A10683B
:1015F0005B420F22210008F007FB0F2303400F2B53
:1016000028D100200AF09CFA0123194A10685B4295
:101610000F22210008F0F8FA0F2303400F2B20D1EE
:10162000134B186801235B420093023300220F2101
:1016300008F0CCF90028CAD052210E4B0E4AFF31D7
:101640000E4805F091F932210D4B0B4AFF310B4842
:1016500005F08AF93C210B4B074AFF31074805F09A
:1016600083F94C21074B044AFF31044805F07CF90B
:101670009C0C02202CDB0010E4DB00107CDA001054
:101680000CDA0010BCDA001070B5304B186809F0A5
:10169000E1FD032809D001262D4B186809F0DAFD79
:1016A000032800D00126012411E00026F4E7274B8F
:1016B000186809F0CFFD03282ED001262CE0244B1A
:1016C000186809F0C7FD032800D001266400FF2C2C
:1016D0002DD81E4D286809F09BFE1D4B186809F097
:1016E00097FE286809F0B6FD022800D00126184BA5
:1016F000186809F0AFFD022800D00126154B1868C4
:10170000210008F035FAA307D1D1104B186809F071
:10171000A1FD022800D0012605232342CFD10C4B86
:10172000186809F097FD0228D0D00126CEE7074BB4
:10173000186809F06DFE064B186809F069FE054B44
:10174000186808F0D9FA300070BDC046D00D0220EC
:10175000D40D02209C0C022070B582B004000D0054
:10176000080009F055FE280009F074FD022800D099
:1017700001243B4EA221306808F0FAF930680023BA
:1017800000930022FF2108F021F9A02800D00124B5
:10179000280009F05FFD022800D00124304EFD2111
:1017A000306808F0E5F93068002300930022FF213B
:1017B00008F00CF9FD2800D00124280009F04AFDAA
:1017C000022800D00124264B1868022108F0D0F925
:1017D000280009F03FFD032800D00124204B1868A1
:1017E000002108F0C5F9FF2800D001241C4B18681F
:1017F000022108F07DF9FF2800D00124280009F01B
:1018000007FE280009F026FD022800D00124144B11
:101810001868022108F0ACF9280009F01BFD032824
:1018200000D001240E4B1868002300930022FF21F2
:1018300008F0CCF85D2800D00124094B1868FF217E
:1018400008F056F95D2800D00124054B18680021E6
:1018500008F04EF9002800D00124200002B070BD2D
:101860009C0C022010B582B000242CE00124002042
:101870000AF066F90123434A10685B420F220221F5
:1018800008F0C2F90F2303400F2B00D001243D4B79
:101890001868002108F06CF9002800D00124394BA9
:1018A000186801235B420093023300220F2108F0E5
:1018B0008DF800285CD1002C03D1334A1368013322
:1018C0001360002C56D100200AF03AF92D4B18680D
:1018D00001235B42009302330122022108F076F8D3
:1018E000A22800D00124274B186801235B420093F3
:1018F00002330022A22108F069F8A2230340A22BA0
:1019000000D0012400200AF01BF91E4B18680123A7
:101910005B42009302330122A22108F057F8FF280E
:1019200000D0012400200AF00BF90123154A1068A9
:101930005B420F22022108F067F90F2303400F2BAF
:1019400000D001240F4B1868002108F011F900287D
:1019500000D001240B4B1868002108F0C9F80028BA
:1019600084D1002C83D1084A1368013313607EE7C9
:101970000124A6E7F621054B054AFF31054804F08E
:10198000F3FFC0469C0C02204C0B02203CDB0010F5
:10199000BCDB00107CDA001070B504000D000800FC
:1019A00009F058FC032800D00124704B186809F096
:1019B00051FC032800D001246D4B186809F04AFC43
:1019C000032800D001246B4E0E21306808F0D0F8B7
:1019D000012330685B420122012108F015F9C30799
:1019E00000D40124634B1868002108F081F80E2808
:1019F00000D001245F4E0E21306808F079F830687D
:101A0000002108F075F8002800D00124280009F012
:101A1000FFFC564B186809F0FBFC554B186809F0A1
:101A2000F7FC280009F016FC022800D001244F4BD7
:101A3000186809F00FFC022800D001244C4B1868EC
:101A400009F008FC022800D001240123494A10684B
:101A50005B420F22012108F0D7F80F2303400F2B20
:101A600000D00124434B1868002108F041F80028F9
:101A700000D00124280009F0EDFB032800D0012448
:101A80003A4B186809F0E6FB032800D00124384BD4
:101A9000186809F0DFFB032800D00124280009F0B2
:101AA000B7FC324B186809F0B3FC314B186809F0E9
:101AB000AFFC280009F0CEFB022800D001242B4BFC
:101AC000186809F0C7FB022800D00124284B1868C9
:101AD00009F0C0FB022800D001240221002009F0F7
:101AE0001DFC0123234A10685B420F22012108F0EC
:101AF0008BF80F2303400F2B00D001241D4B1868D7
:101B0000002107F0F5FF002800D00124280009F08B
:101B1000A1FB012800D00124144B186809F09AFB9E
:101B2000012800D00124124B186809F093FB01280A
:101B300000D001240021002009F0F0FB280009F06A
:101B400089FB022800D00124084B186809F082FBA9
:101B5000022800D00124064B186809F07BFB0228FC
:101B600001D0012070BD2000FCE7C046D00D02204E
:101B7000D40D02209C0C022070B5050007F019FF5F
:101B8000244B1860002803D0FFF77EFD04000EE010
:101B9000214B224ADA21224804F0E6FE1E4B1F4A5E
:101BA000E5211F4804F0E0FE0124002C2BD107F0B2
:101BB00000FF184B18600028F0D029002000FFF724
:101BC000CBFD2900FFF7E8FE0400124B186808F06F
:101BD00093F8280009F03EFB032800D00124114BA4
:101BE000186809F037FB032800D001240E4B186851
:101BF00009F030FB0328D7D1002CD6D10B4A13684B
:101C000001331360D1E78421094B044A4900044899
:101C100004F0AAFE9C0C02205CDB0010D0DB00105C
:101C20007CDA0010D00D0220D40D0220480B0220D7
:101C30003CDB0010F0B5C64600B584B080246400DB
:101C400003AB019301250095002322001D491E4886
:101C500009F070FA002301930093039B22001B49B3
:101C60001B4809F067FA1B4B98461B4F1B4B01930F
:101C70000095042322004146380009F05BFA184E13
:101C800001960095082322004146380009F052FAD7
:101C90003368002B09D007F08CFE124B1860002827
:101CA00009D004B080BCB846F0BD0F4B0F4AC52127
:101CB0000F4804F059FE0F4B0C4ACA210C4804F09F
:101CC00053FEC04668DB00106518001070DB001082
:101CD000791B001078DB0010C5150010D00D022014
:101CE000D40D0220C40C022080DB0010F0DB0010B9
:101CF0007CDA00108CDB001010B5234B186800282C
:101D00000CD0224A136801331360642B0CD0C82B0B
:101D10001ED096225200934222D010BD1C4B1D4A69
:101D20001D491E4804F020FE07F018FF002803D0CC
:101D30001B4B01221A60F0E7134B18680022122196
:101D400008F00AF80128E8D0154B01221A60E4E7F0
:101D500007F004FF1228E0D0114B01221A60DCE7E3
:101D6000122107F0F1FE012802D00D4B01221A606A
:101D7000064B00221A600A4B1B68002BCDD1094A82
:101D8000136801331360C8E7C40C02204C0C022016
:101D90008CDB00109CDB0010C60300007CDA001016
:101DA000D40C0220F40A0220124B1A68124B1B6852
:101DB0009A4219D00120104B1A680E4B1A600F4B33
:101DC0001A680F4B1B689A4210D00D4B1A680B4BC8
:101DD0001A600C4B1A680C4B1B689A4208D00A4BCD
:101DE0001A68084B1A6070470020E4E70020ECE70F
:101DF0000020F4E7380B0220480B02203C0B0220A5
:101E00004C0B0220340B0220F40A022070B528E0AB
:101E10000134294B1868002108F0D2FC0128F7D0C2
:101E2000032C02D0254B01221A601F21002009F04B
:101E300075FA234C0123236001256D421E4E2900B3
:101E4000306808F0BDFC3068290008F0B9FC0023B8
:101E500023600021002009F061FA1A4A1368013357
:101E60001360154B186808F0F3FE002802D0134BDE
:101E700001221A60124C01232360C820400009F09F
:101E80004BFD002323600C4B186808F0E1FE03288B
:101E900002D00A4B01221A60074B186808F0F0FEC6
:101EA000002802D0054B01221A60064A136801334C
:101EB00013600024ADE7C046C00C0220880C02204D
:101EC0001C0D0220EC0A022010B5494B186809F0DD
:101ED000C1F9032800D078E0002009F00FFA0028AB
:101EE00002D0444B01221A60434B1868002108F0CD
:101EF00067FC012802D03F4B01221A603C4C20684D
:101F000009F086FA206809F0A5F9022863D10020BB
:101F100009F0F4F9012802D0364B01221A60374B40
:101F200001221A60364B1868C82108F049FC0128C4
:101F300002D0304B01221A60304B00221A60304B25
:101F40001868002108F03CFC002802D0294B01222F
:101F50001A60002009F0D2F9012802D0254B012295
:101F60001A60274B186800230022002108F064F94A
:101F7000012802D01F4B01221A60002009F0BEF98F
:101F8000012802D01B4B01221A601B4B186800234A
:101F90000022002108F050F9012802D0154B01223F
:101FA0001A60002009F0AAF9002802D0114B012282
:101FB0001A600F4B186809F04DF9032811D1104B26
:101FC0001868002108F022F810BD0E4B0E4AB62109
:101FD0000E4804F0C9FC0E4B0B4ACD210B4804F00F
:101FE000C3FC0E21074B084AFF31084804F0BCFC33
:101FF000B00D0220880C0220F40C0220200D0220DB
:10200000C80C022008DC00109CDD001034DC00103D
:102010006CDC001010B5444B186809F01BF903285C
:1020200000D072E0002009F069F9002802D03F4B8F
:1020300001221A603E4B1868002108F0C1FB0128FC
:1020400002D03A4B01221A60374C206809F0E0F9BF
:10205000206809F0FFF802285ED1002009F04EF94F
:10206000012802D0314B01221A60324B01221A6042
:10207000314B1868C82108F0A3FB012802D02B4B74
:1020800001221A602B4B00221A602B4B186800218A
:1020900008F096FB002802D0244B01221A60002091
:1020A00009F02CF9012802D0204B01221A60204BA4
:1020B000186800230022002108F0BEF8012802D091
:1020C0001A4B01221A60002009F018F9012802D0E9
:1020D000164B01221A60184B1868002300220021B9
:1020E00008F0AAF8012802D0104B01221A60002043
:1020F00009F004F9002802D00C4B01221A600E4BA3
:102100001868002107F082FF10BD8E210B4B0C4A8E
:1021100049000C4804F028FC34210B4B084AFF31DD
:10212000084804F021FCC046B00D0220880C0220B3
:10213000F40C0220200D0220C80C022008DC001044
:1021400078DD001034DC00106CDC001010B5FFF7F7
:10215000BBFE084C236801332360642009F0DCFBDC
:10216000FFF758FF236801332360642009F0D4FB94
:10217000EDE7C0462C0B022010B502E00D4B01220A
:102180001A60002009F0DCFC01210B4B1868494261
:1021900008F016FB012802D0064B01221A60064BFC
:1021A000186800230022002108F046F80128E5D134
:1021B000E7E7C046880C0220F40C022030B583B05B
:1021C000012008F00DF9224B186000282DD00021C5
:1021D000032008F015F81F4B186000282BD00120B1
:1021E00008F0FEF81C4B186000282AD080256D00EE
:1021F0001A4B01930123009300232A001849194820
:1022000008F098FF00240194009400232A00164946
:10221000164808F08FFF0194009400232A00144907
:10222000144808F087FF03B030BD134B134A8721D1
:10223000134804F099FB134B104A8921104804F00D
:1022400093FB114B0D4A8F210D4804F08DFBC046C6
:10225000C80C0220C00C0220F40C0220B00D022099
:10226000D0DC001079210010D8DC00104D210010C6
:10227000E0DC00100D1E001098DC0010BCDD00102A
:1022800034DC0010A4DC0010BCDC001010B582B0FF
:102290000023019309F05EF90400194B1B68C31A6F
:1022A000632B0DD9174B186800280BD0164B1B68F1
:1022B000002B0ED1154B1B68002B1BD1104B1C6043
:1022C00002B010BDE221124B124AFF31124804F055
:1022D0004BFB002108F04EF90A4B186801A908F0E1
:1022E00049F90028E6D0F5210C4B0A4A49000A4872
:1022F00004F03AFB0A4B186801A908F03BF9DDE746
:10230000E40C0220C80C0220200D02201C0D02202B
:1023100098DC001058DD001034DC0010E8DC001000
:10232000C00C0220114B1A68114B1B689A4214D042
:102330000F4B1A680D4B1A600E4B1A680E4B1B6838
:102340009A420ED00C4A1368591C1160094A136056
:102350000A4B1868434258417047084B01221A60E3
:10236000E6E7064B01221A60ECE7C0460C0B0220A0
:102370002C0B0220F80A0220EC0A0220880C022012
:10238000024B1860024B00221A607047900C02202A
:10239000CC01002070B504000D00C72805D8054BFE
:1023A0001B5C002B02D1034B1D5570BDEC20FFF7C9
:1023B000E7FFF8E71C0A022070B504000D00C728EB
:1023C00005D8054B1B5C002B02D1034B1D5570BD7E
:1023D000FE20FFF7D5FFF8E75409022000B583B0CF
:1023E0001B4B009307E01B4B186809F011F81A4AC1
:1023F000136801331360194B1868002301226946E2
:1024000007F01AFF002809D0124B186808F022FFC5
:102410000328E8D01248FFF7B3FFE4E71F210020AC
:1024200008F07CFF01220D4B1868524201A908F008
:102430001FF9012807D00B48FFF7A2FF0021002059
:1024400008F06CFFD7E703210198FFF7A3FFF5E73A
:102450000F270000B40C0220AC0B02200C0D022050
:102460005F0200006D02000000B583B00BE00321A5
:102470000098FFF7A1FF1E4B186808F0C9FF1D4A1E
:102480001368013313601C4B18680122694608F079
:10249000EFF800280AD0164B186808F0DBFE032876
:1024A000E5D09C20FF30FFF76BFFE0E71F21002005
:1024B00008F034FF07F02AF9104B1A6801321A604D
:1024C0001B68019307F042F901220B4B18680023A7
:1024D000524201A907F0B0FE012804D100210020DA
:1024E00008F01CFFCFE7B420FF30FFF749FFF5E706
:1024F000AC0C0220A80B0220080D0220D40B0220F5
:1025000010B582B0002411E007F000F9194B1A68E9
:1025100001321A601B68019307F018F9164B18680E
:1025200000238C2201A907F087FE0134042CEBD98B
:1025300007E01248FFF724FF114B00221A6007F052
:10254000C5F807F0E3F80B4B1A6801321A601B68F4
:10255000019307F0FBF8084B186800238C2201A9AF
:1025600007F06AFE0128E7D0054B1B68012BE0D17C
:10257000E2E7C046D80B02200C0D02204602000004
:10258000040E022030B583B0002411E007F0BEF83D
:10259000364B1A6801321A601B68019307F0D6F8AF
:1025A000334B186800238C2201A907F045FE013443
:1025B000042CEBD904E007F089F8019BFA2B17D81B
:1025C00007F0A4F8294B1A6801321A601B680193BE
:1025D00007F0BCF8264B186800238C2201A907F0ED
:1025E0002BFE0128E7D0EF204000FFF7C9FEE2E70D
:1025F0008C2009F091F91F4B186809F0A1FA1E4BC5
:102600001B68012B05D01C4B01221A6000250124F8
:1026100008E0F220FF30FFF7B3FEF4E71748FFF7BA
:10262000AFFE0134C72C07D8154B1B5D002BF5D02E
:10263000052BF6D10135F4E7002D02D11148FFF743
:102640009FFEC82200210E4806F0F6FD0E4A1368D0
:1026500001331360054B00221A60002009F070FA64
:10266000044B186808F0D4FEAAE7C046D80B022035
:102670000C0D0220B80C0220040E02200102000002
:102680001C0A02200D0200007C0B0220F0B5D64689
:102690004F464646C0B582B08046012803D000238D
:1026A0009A4699460BE0FEF771F8F8E74146019823
:1026B000FFF782FE07F00AF84346012B0CD0344B9B
:1026C00018688C2201A907F0D3FF0128EED0222040
:1026D000FF30FFF755FEEDE72E4B1B68FA2BEED9C6
:1026E0002D4B186809F02CFA00270026002501243C
:1026F00004E0A0204000FFF743FE0134C72C0FD8B0
:10270000264B1B5D002BF4D0012B05D0022B05D0EE
:10271000052BF2D10137F0E70135EEE70136ECE7A2
:10272000042D0AD801239C46E1444B46022B06D9CE
:10273000AE204000FFF724FE01E000239946042E5E
:102740000AD801239C46E2445346022B06D96C204A
:10275000FF30FFF715FE01E000239A46002F03D15A
:102760007620FF30FFF70CFEC82200210B4806F050
:1027700063FD0B4A136801331360064B00221A6095
:10278000002009F0DDF9044B186808F041FE96E7D7
:10279000080D0220D40B0220B00C022054090220A4
:1027A000780B022070B582B080246400274D284B3E
:1027B00001931E260096012322002649280008F0D6
:1027C000B9FC254B019300960223220023492800DF
:1027D00008F0B0FC00250195009500232200204957
:1027E000204808F0A7FC204B01930096012322000B
:1027F0001E491F4808F09EFC1E4B019300960223C1
:1028000022001D491D4808F095FC01950095002304
:1028100022001B491B4808F08DFC002204210A20DD
:1028200007F074FC184D2860002204210A2007F0EC
:102830006DFC164C20602868154908F055FA206890
:10284000144908F051FA02B070BDC0468D26001040
:10285000AC0C0220DCDD0010B00C0220E4DD001026
:10286000ECDD001069240010B40C0220F4DD00102F
:1028700085250010B80C0220FCDD00100125001099
:1028800004DE0010DD2300100C0D0220080D0220D4
:102890000CDE00101CDE001010B582B00023019386
:1028A000434A136801331360DB0756D5414B186860
:1028B00008F000FA012822D13E4B186808F0FAF916
:1028C000012833D13B4B186808F0F4F901285CD09B
:1028D00006F05AFF040038490B6801330B60354B92
:1028E0001868002301AA07F0ADFD012803D0324A81
:1028F0001368013B1360200006F04AFF45E006F034
:1029000043FF04002C490B6801330B60294B186806
:10291000002301AA07F096FD012803D0264A136878
:10292000013B1360200006F033FFC5E706F02CFFE3
:10293000040021490B6801330B601E4B186800230B
:1029400001AA07F07FFD012803D01B4A1368013B51
:102950001360200006F01CFFB4E7184B186801AAAA
:10296000694608F0CBF8012812D0144B186801AA68
:10297000694608F0C3F801280FD0104B186801AA67
:10298000694608F0BBF801280CD0019802B010BDD0
:1029900005210098FFF7FEFCE7E705210098FFF707
:1029A000F9FCEAE705210098FFF7F4FCEDE7C046E3
:1029B000B40B0220080D0220D40B02200C0D0220C3
:1029C00010B582B000230093634A1368013313608B
:1029D000DB075CD5614B186808F06CF901281ED143
:1029E0005E4B186808F066F901282FD15B4B186818
:1029F0006A4601A908F082F801283ED05848FFF73E
:102A0000BFFC564B18686A4601A908F077F8012800
:102A100038D05448FFF7B4FC009802B010BD06F05F
:102A2000B3FE040050490B6801330B604B4B186830
:102A300000236A4607F006FD012803D04A4A1368BE
:102A4000013B1360200006F0A3FEC9E706F09CFEE0
:102A5000040045490B6801330B60404B18680023A4
:102A60006A4607F0EFFC012803D03F4A1368013B98
:102A70001360200006F08CFEB8E705210198FFF7EF
:102A80009BFCBEE705210198FFF796FCC4E7374B96
:102A900018686A4601A908F031F8012828D0334B9C
:102AA000186808F007F9012827D1304B186808F09A
:102AB00001F9012838D12D4B186808F0FBF80128DE
:102AC000AAD006F061FE040029490B6801330B60AF
:102AD000264B186800236A4607F0B4FC012803D08F
:102AE000234A1368013B1360200006F051FE93E770
:102AF00005210198FFF74EFCD1E706F045FE0400E2
:102B00001B490B6801330B60184B186800236A4699
:102B100007F098FC012803D0154A1368013B1360A5
:102B2000200006F035FEC0E706F02EFE0400104936
:102B30000B6801330B600D4B186800236A4607F0E1
:102B400081FC012803D00A4A1368013B136020006E
:102B500006F01EFEAFE7C046B00B0220080D0220B3
:102B6000A6020000A7020000D40B02200C0D0220D8
:102B7000D80B022010B51F4B1A681F4B1B689A42D6
:102B800024D01C4B1A681C4B1A601C4B1A681C4B37
:102B90001B689A421FD0194B1A68194B1A60194BBF
:102BA0001A68194B1B689A421AD0164B1A68164BB2
:102BB0001A60164B1A68164B1B689A4215D0134BB5
:102BC0001A68134B1A60134B186810BDB0208000B0
:102BD000FFF7D6FBD5E7B2208000FFF7D1FBDAE79D
:102BE000B4208000FFF7CCFBDFE7B6208000FFF7C2
:102BF000C7FBE4E7780B0220900B02207C0B02203D
:102C0000940B0220A80B0220980B0220AC0B022090
:102C10009C0B0220CC010020044B05481A6850434D
:102C200001301860000C4004400C7047B80B0220C3
:102C3000354E5A0100B583B0094B18680023009344
:102C400002330022002109F0E3FB06F05FFD054A94
:102C500013680133136006F079FD03B000BDC04670
:102C6000D80D0220540B022070B584B008F06CFC23
:102C7000050001216423009303AB00224942002098
:102C800009F066FB040008F05FFC401B632802D8D3
:102C90008B4B00221A60002C00D0AAE0039B002B73
:102CA00000D0ACE0874B186802AB00930423864A3F
:102CB000002109F0ADFB012800D0A6E0029E002E05
:102CC00000D0A8E008F040FC050001216423009337
:102CD00003AB00224942002009F03AFB040008F04F
:102CE00033FC401B632802D9754B00221A60012C6B
:102CF00000D096E0744B039A9A4200D097E0734A52
:102D00001368013313606F4B18680023009304337A
:102D10006D4A002109F07CFB012800D08DE0694B51
:102D20001868002300930433694A002109F070FBFE
:102D3000002800D087E001210023009303AB00228C
:102D40004942002009F004FB012800D081E05E4BDD
:102D5000039A9A4200D082E05A4B186800230093ED
:102D60000333594A002109F053FB01287DD1554B0B
:102D70001868002300930333554A002109F048FBEB
:102D8000012878D101210023009303AB002249429E
:102D9000002009F0DDFA012873D14D4B039A9A42C5
:102DA00075D1484B186800230093474A002109F069
:102DB0002FFB012871D101210023009303AB0022D6
:102DC0004942002009F0C4FA414B039A9A426AD161
:102DD0003400042C00D98DE03A4B1868002300938E
:102DE00002330022002109F013FB012861D10134D4
:102DF000EFE7384B384A9821384803F0B5FD384B97
:102E0000354A9921354803F0AFFD364B324AA721A8
:102E1000324803F0A9FD344B2F4AAB212F4803F071
:102E2000A3FD304B2C4AB9212C4803F09DFD2F4BBC
:102E3000294ABA21294803F097FD2A4B264AC9217D
:102E4000264803F091FD234B234ACD21234803F06C
:102E50008BFD244B204AD421204803F085FD234BD1
:102E60001D4AD5211D4803F07FFD1E4B1A4AE12162
:102E70001A4803F079FD1B4B174AE421174803F069
:102E800073FD184B144AE721144803F06DFD184BED
:102E9000114AE921114803F067FD124B0E4AF32154
:102EA0000E4803F061FD124B0B4AF6210B4803F06C
:102EB0005BFD80210B4B084A4900084803F054FD94
:102EC000D0010020D80D0220A1860100300B022085
:102ED000B31500002CDE0010A8E4001054DE001032
:102EE0008CDE0010A4DE0010CCDE0010E4DE00104A
:102EF0000CDF001001210023009303AB00224942A4
:102F0000002009F025FA012800D0ABE0864B039A97
:102F10009A4200D0ADE00023009303AB00220021D1
:102F2000002009F015FA002800D0A9E001210023B3
:102F3000009303AB00224942002009F009FA012462
:102F40007A4B18680025009501232200002109F022
:102F50005FFA009503AB00220021002009F0F8F988
:102F6000012800D093E001366400039B0133E7D1D0
:102F7000202E00D092E06423009303AB02220121B3
:102F8000002009F0E5F9002800D08EE00122674B0F
:102F900018680024009400235242002109F038FAF6
:102FA000009403AB00220021002009F0D1F9012890
:102FB00000D081E0039B023300D084E05B4B1868B3
:102FC0000024009400230022002109F021FA00943B
:102FD00003AB02220021002009F0BAF9039B02335F
:102FE00078D10023009303AB00220021002009F0D8
:102FF000AFF9002875D1039B043379D14B4B186886
:1030000002AB009301230022002109F001FA039B87
:10301000043374D101220023009303AB52420021F8
:10302000002009F095F9414B186802AB0093012389
:103030000022002109F0ECF9029D002D66D1012447
:103040007F2C00D988E0394B186802AB009301232C
:103050002200002109F0DCF9029BAB425DD125433F
:103060006400EDE70621324B324AFF31324803F06B
:103070007BFC8321314B2F4A49002F4803F074FC1D
:1030800086212F4B2B4A49002B4803F06DFC9321DE
:10309000274B284A4900284803F066FC3221294B77
:1030A000244AFF31244803F05FFC3E21244B214A8F
:1030B000FF31214803F058FCA4211D4B1D4A490053
:1030C0001D4803F051FC4A211F4B1A4AFF311A4890
:1030D00003F04AFC58211C4B164AFF31164803F0F6
:1030E00043FC5E21164B134AFF31134803F03CFCAE
:1030F000AF21164B0F4A49000F4803F035FCB321AE
:10310000124B0C4A49000C4803F02EFC6C21104B6A
:10311000084AFF31084803F027FC76210D4B054A89
:10312000FF31054803F020FCB8150000D80D02203F
:10313000A4DE0010A8E4001054DE00103CDF0010F4
:103140002CDE00107CDF00108CDF0010CCDF0010C4
:10315000CCDE001018E0001001210023009303AB27
:1031600000224942002009F0F3F80021002009F074
:1031700089FB002800D0D5E0A24B186802AB009371
:103180000423A14A002109F043F90021002009F09D
:1031900079FB012800D0CCE00021002009F072FB6F
:1031A000002800D0CCE00122964C20680023009338
:1031B00001335242002109F02BF9FF222068120648
:1031C000002109F08BFB431C00D0C0E08D4B186838
:1031D000FF22002109F082FB8C4B984200D0BDE019
:1031E0000122884B18685242002109F077FB884B76
:1031F000984200D0B9E00122824B18685242002167
:1032000009F06CFB002800D0B6E07E4B1868002265
:10321000002109F063FB002800D0B4E00122794BC3
:1032200018685242002109F059FB002800D0B1E093
:103230000021002009F026FB012800D0B1E0002188
:10324000002009F01FFB002800D0B1E0714B009373
:10325000002300223221704809F040FD041E00D1F5
:10326000ADE06E4A13680133136001256D420026FC
:103270000096002300222900002009F069F81F2190
:10328000002008F04BF8039608F05EF90200009564
:1032900000230121200009F03BFD009503AB002233
:1032A0000021002009F054F8002800D08EE0039B94
:1032B000002B00D091E0594A13680133136008F0E5
:1032C00043F9020001256D420095002301212000F1
:1032D00009F01EFD009503AB00220021002009F03B
:1032E00037F8012800D07FE0039B002B00D182E05B
:1032F0000021002008F012F801256D4200950023FE
:1033000000220521200009F003FD444A136801331F
:1033100013600023009300222900002009F018F810
:1033200004B070BD80213E4B3E4AFF313E4803F061
:103330001BFB88213D4B3B4AFF313B4803F014FB0C
:10334000C421374B374A4900374803F00DFB96211B
:10335000374B344AFF31344803F006FB9A21354B92
:10336000304AFF31304803F0FFFA9E21324B2D4A9C
:10337000FF312D4803F0F8FAD021304B294A49009B
:10338000294803F0F1FAA2212D4B264AFF312648A5
:1033900003F0EAFAD121294B224A4900224803F0DE
:1033A000E3FAD321214B1F4A49001F4803F0DCFAFE
:1033B000A8211B4B1B4AFF311B4803F0D5FAD7212C
:1033C000204B184A4900184803F0CEFAC4211E4B7E
:1033D000144AFF31144803F0C7FAE2211B4B114A8B
:1033E0004900114803F0C0FAE921194B0D4A490080
:1033F0000D4803F0B9FAEA21164B0A4A49000A4877
:1034000003F0B2FAD80D0220A1860100FFFFFF00F1
:1034100000FFFF005D35001078E30010300B022044
:103420003CE00010A8E4001054DE001090E0001012
:10343000E4E0001064E1001008E20010C8E20010AF
:103440002CE3001088E300109CE30010C0E30010A0
:10345000A4DE0010D8E3001010B582B0FFF704FC22
:10346000384B0093002300225A21374809F036FCDC
:10347000364B186028E022000121002008F012FFDE
:10348000334B1A68944660441860324B18683221F6
:1034900004F0EEFF002949D12F4C1F31206807F0BE
:1034A0003DFF012252420121002008F0FBFE284B83
:1034B0001A689446604418602068002107F02EFFC7
:1034C000244A136801331360FFF7A6FB5A2104F066
:1034D000CFFF0A00092900D80A221C4B18680123D3
:1034E0005B4200930023042109F012FCFFF794FBD8
:1034F0005A2104F0BDFF0C00092900D80A2422003B
:103500000021002008F0CEFE002803D0104A1368E6
:103510000133136000220021002008F0C3FE0028C0
:10352000A9D00B4A136801331360A4E70122524269
:103530000121002008F0B6FE054B1A68944660444D
:103540001860BDE7352C0010F0E30010F80D0220E4
:10355000500B0220300B0220D80D022010B582B093
:103560001D4B1B68002B19D11C4C206808F0E8FA91
:10357000206807F06FFE032809D1184B186807F080
:1035800047FF154A13680133136002B010BDF921DB
:10359000134B144A4900144803F0E6F90F4C206815
:1035A00008F0CEFA0C4B1A6820680023009303330E
:1035B000002108F02DFF206807F04CFE032804D1FD
:1035C000064B186807F024FFDBE7054B054A07495F
:1035D000054803F0C9F9C046E80A0220D80D0220C8
:1035E000FCE3001084E4001054DE0010FF01000032
:1035F00000B583B08022074B019300230093520053
:103600000549064807F096FD054A064B1A6003B0C7
:1036100000BDC046D80D02202CE400105934001023
:10362000192C0010B80B022000B585B0284B186883
:1036300000281AD0274B1B68002B14D0264A136889
:1036400001331360312B0EDD130000221A60234B6F
:103650001B68012B17D0022B22D0002B0BD0204A45
:1036600013680133136005B000BD1E4B1E4A1F498D
:103670001F4803F079F9002109F068F8174A136828
:1036800001331360EBE70023019300930233002220
:10369000002108F07BFF114A136801331360DEE755
:1036A000FF2303930023019303AB00930223002223
:1036B000002108F06BFF039BFF2B03D0074B002278
:1036C0001A60CCE70B4B084A0B49094803F04CF948
:1036D000D80D0220F80D0220480C0220DC0B02203D
:1036E000540B022038E4001070E400107B0200004C
:1036F00054DE001048E400109B0200000E4B1A68D4
:103700000E4B1B689A4212D00C4B1A680A4B1A6077
:103710000B4B1B680B4A1268934205D99B1A052B69
:1037200002D9094B00221A60074B18687047064BF4
:1037300000221A60ECE7C046100B0220300B02207A
:10374000540B0220500B0220D0010020024A1378B3
:10375000013313707047C046130E0220024A1378DB
:10376000013313707047C046140E022010B50400D8
:1037700009F07CFB0B4B1B6883420CD1411C2000E1
:1037800009F08CFB074A136801331360064A13786B
:103790000133137010BD054B054A0649064803F076
:1037A000E3F8C046680B0220170E0220BCE40010AC
:1037B000DCE6001077040000DCE4001010B5002403
:1037C00001E00134E4B2092C13D8A300134A98583D
:1037D00009F02EFB0028F4D1114B00221A601B685F
:1037E000002BEED17C210F4B0F4AFF310F4803F025
:1037F000BBF80A4B986A09F01BFB002805D0084B60
:1038000000221A601B68934200D010BDC121054BF5
:10381000054A4900054803F0A7F8C046080C0220F5
:10382000D801002014E50010B4E60010DCE400101C
:1038300070B5002007F062FD06001F21002007F090
:103840006DFD1D4B1B689D00ED186D00280008F0F4
:1038500063F8002407E0194B00221A601B68002B54
:1038600014D00134E4B2092C17D8631C124A116831
:103870005943280004F0FCFDC0B2431EDBB2104ADD
:10388000125D9A42E7D38242EBD9E4E7AA210D4BBD
:103890000D4AFF310D4803F067F83100002007F0B2
:1038A0003DFD064B1B68012B00D070BD084A136814
:1038B00001331360F9E7C046340C0220D801002020
:1038C0004809002014E5001090E60010DCE4001028
:1038D000200B022030B583B0040009F0C7FA0B2892
:1038E00014D8114A135C01331354002814D10F4B20
:1038F0001B78012B10D10025009500230022032105
:10390000200009F005FA094B1D7005E0084B002264
:103910001A601B68002B01D003B030BD054B064A6E
:103920000649074803F020F848090020160E022037
:10393000D801002014E5001008E70010670400001B
:10394000DCE4001070B582B0002408E0C8213B4BD5
:103950003B4AFF313B4803F007F80134E4B2092C3D
:1039600028D82500A300384A985809F061FA0028A1
:1039700005D1364B00221A601B68002BE6D0324E70
:10398000AD00A859002300930022032109F0C0F9DB
:10399000A85909F04DFA0028DFD02C4B00221A60FC
:1039A0001B68002BD9D1D421244B254AFF3125484F
:1039B00002F0DAFF05F0AAFE254B9B7A002B05D01A
:1039C000224B00221A601B68002B0FD00B22002113
:1039D0001F4805F031FC05F0B9FE1E4B1B6898002E
:1039E000C018400007F098FF002308E0F021134BB7
:1039F000134A4900134802F0B7FF0133DBB2092B29
:103A000010D8134AD25C002AF7D0104A0021116066
:103A10001268002AF1D1F231084B094AFF310948F6
:103A200002F0A2FF094B1B68012B01D002B070BD50
:103A3000094A136801331360F8E7C04614E5001023
:103A400064E60010DCE40010080C0220D80100201D
:103A500048090020340C0220200B022030B583B02E
:103A60003A4B186809F0E4F9002805D0384B0022D9
:103A70001A601B68002B41D0364B1B78002B05D0F9
:103A8000334B00221A601B68002B3DD02F4C256859
:103A900007F05AFD0200002300930121280009F0DD
:103AA00037F9206809F0C4F9002805D1284B002215
:103AB0001A601B68002B2DD0274B1B68D800C0183C
:103AC00007F02AFF214B186809F0B2F9002805D049
:103AD0001F4B00221A601B68002B21D01D4B1B7846
:103AE000012B29D01A4B00221A601B68002B1DD015
:103AF000174B1B68012B23D003B030BD174B184A5E
:103B00001849194802F030FF144B154A1749164856
:103B100002F02AFF114B124A1549134802F024FF04
:103B20000E4B0F4A1349104802F01EFF0B4B0C4A74
:103B300011490D4802F018FF064B00221A70D7E712
:103B40000E4A136801331360D6E7C046240D0220E5
:103B5000D8010020170E0220340C022014E50010BA
:103B600038E6001007020000DCE400100D0200003F
:103B7000160200002102000027020000200B022094
:103B800070B582B08F4C256807F0DEFC0200002380
:103B900000930121280009F0BBF8206809F048F9DA
:103BA000002805D1884B00221A601B68002B17D013
:103BB000864C656A07F0C8FC0200002300930121CF
:103BC000280009F0A5F8606A09F032F9002805D14B
:103BD0007D4B00221A601B68002B08D000243FE0B8
:103BE00091217B4B7B4A89007B4802F0BDFE784BDC
:103BF000784A7A49784802F0B7FE754B754A784999
:103C0000754802F0B1FE724B724A7649724802F072
:103C1000ABFE754B5B7A002B05D06B4B00221A6014
:103C20001B68002B4DD0674B1E6807F08DFC02000F
:103C30000025009500230221300009F069F8634B4C
:103C40005E6A07F081FC020000950023022130002B
:103C500009F05EF85C4B1B68012B38D00134E4B2EC
:103C6000092C39D8614B1B685800C018400807F070
:103C700053FE544B186809F0DBF8002805D1524B6D
:103C800000221A601B68002BB7D0594B1B78002B01
:103C900005D04D4B00221A601B68002BB3D04B4B54
:103CA000586A09F0C5F80028B3D1474B00221A60C2
:103CB0001B68002BADD1464B464A4E49464802F0A0
:103CC00053FE434B434A4C49434802F04DFE4B4A96
:103CD000136801331360C1E7444B1B689800C01898
:103CE000400007F019FE424B1B78012B05D0364BE4
:103CF00000221A601B68002B3FD03B4B5B7A002BE5
:103D000005D1314B00221A601B68002B3BD02F4B92
:103D1000586A09F08DF8002805D12B4B00221A6053
:103D20001B68002B36D0274B186809F081F8012852
:103D300005D1254B00221A601B68002B31D0234C83
:103D4000606A002300930022032108F0E1FF606A0B
:103D500009F06EF8002805D01B4B00221A601B6882
:103D6000002B24D00023204A5372214A1370164B93
:103D70001B68012B21D002B070BD154B154A20499C
:103D8000154802F0F1FDA321114B124A8900124897
:103D900002F0EAFDA5210E4B0E4A89000E4802F002
:103DA000E3FD0B4B0B4A17490B4802F0DDFD084BB6
:103DB000084A1549084802F0D7FD104A1368013334
:103DC0001360D8E7240D0220D8010020080C02203F
:103DD00014E500109CE70010DCE400104E02000027
:103DE0005D0200006302000048090020340C02203C
:103DF000170E0220690200006F020000200B022053
:103E0000860200009A020000A3020000F0B583B011
:103E1000002408E0BF21204B204A8900204802F0FE
:103E2000A3FD0134E4B2092C2BD82500A3001D4AC0
:103E3000985808F0FDFF002805D01B4B00221A609F
:103E40001B68002BE6D0174EAD00AF5907F07CFB86
:103E50000200002300930121380008F059FFA859FF
:103E600008F0E6FF0028DCD10F4B00221A601B6827
:103E7000002BD6D1C221084B084A8900084802F01D
:103E800073FD094B1B68012B01D003B0F0BD074A3D
:103E9000136801331360F8E714E5001054E70010CD
:103EA000DCE40010080C0220D8010020200B0220C6
:103EB00030B583B0304B186808F0BAFF002805D041
:103EC0002E4B00221A601B68002B3CD02C4B012289
:103ED0001A70294C206800230093042108F018FF71
:103EE000206808F0A5FF002805D1244B00221A60A5
:103EF0001B68002B2DD0022007F032FD1E4B1868E6
:103F000008F096FF002805D01C4B00221A601B68A1
:103F1000002B24D01B4B1A68174D286800240094EE
:103F20000023042108F0F4FE2868009400230022F6
:103F3000032108F0EDFE144B1C70104B1B68012B85
:103F400014D003B030BD114B114A1249124802F08F
:103F50000BFD0E4B0E4A11490F4802F005FDB7212B
:103F60000A4B0B4A89000C4802F0FEFC0C4A13680D
:103F700001331360E5E7C046080C0220D801002099
:103F8000160E0220340C02204809002014E500100F
:103F90007CE70010BD020000DCE40010CF0200004E
:103FA000200B022010B582B0264B1B685900C9189F
:103FB000254B009300230022244808F08FFE244B59
:103FC000186000280ED0012108F0DEFE204B186892
:103FD00008F0FEFE012811D01E4B1F4ABC211F48CD
:103FE00002F0C2FC1E4B00221A601B689342EAD109
:103FF0001C4B194AB221194802F0B6FC144C00219E
:10400000206808F0C1FE206808F0E2FE002805D014
:10401000154B114AC221114802F0A6FCFFF7CEFB56
:1040200001E0FFF7F3FEFFF703FCFFF78BFCFFF760
:1040300015FDFFF7A5FD0D4B1B78012BF1D1FFF707
:1040400037FFEEE7340C02206D37001020E500103A
:10405000240D022030E50010F4E60010DCE400102E
:10406000D801002014E5001070E50010150E0220A4
:1040700030B583B0002406E0564B00221A601B685E
:10408000002B36D02C00092C41D8651C524B1968E6
:104090006943524B009323000122514808F01EFE51
:1040A000A300504A98500028E6D008F0AFFE4C49D3
:1040B00009F09AF8002823D1A4004A4BE45807F0ED
:1040C00043FA020001235B420093002301212000F8
:1040D00008F01EFE0128D5D03E4B00221A601B6856
:1040E000002BCFD13821404B404AFF31404802F0ED
:1040F0003BFC95213C4B3D4A49003D4802F034FCD5
:1041000097213C4B394A4900394802F02DFC324B8B
:104110001B689900C9184900304B00932300012205
:104120002F4808F0DBFD2F4B986200281CD0A4001C
:104130002C4BE45807F008FA020001235B4200937D
:1041400000230121200008F0E3FD012812D1214BBA
:1041500000221A601B68002B0CD15221224B234AEB
:10416000FF31234802F000FC1A4B00221A601B6842
:10417000002B21D0204D214B009300230122290048
:104180001F4808F0ABFD1F4C20601F4B009300231D
:10419000002229001D4808F0A1FD1D4B186023686E
:1041A000002B01D0002805D10A4B00221A601B68A1
:1041B000002B08D003B030BDA4210B4B0B4A4900A3
:1041C0000B4802F0D1FBB321074B084A49000848CD
:1041D00002F0CAFBD8010020340C0220D5380010B0
:1041E000B0E50010080C022014E5001024E70010D0
:1041F000DCE40010BCE50010FFFF00004D370010AC
:1042000008E60010BC0C02205D37001010E600101C
:10421000CC0C022010B582B004000B2200210F4804
:1042200005F00AF82C2200210D4805F005F80D4B89
:104230001C60FFF71DFF0C4B1B68002B01D102B067
:1042400010BD8022002301931E33009300235200EF
:104250000649074806F06EFFF1E7C046480900200E
:10426000080C0220340C0220D801002018E60010AF
:10427000A53F001010B50100154B1B68834204D008
:10428000144B00221A60124B1860134B1B689800E5
:10429000C018400004F0ECF80130104B1A68104BC5
:1042A0001B689A4209D00B4B00221A600C4B1A680B
:1042B0000A4B1A600B4B186810BD064A136801338D
:1042C00013608342F2D9074B00221A60EEE7C04622
:1042D000E00C0220DC0C0220340C0220040B022033
:1042E000200B0220D801002010B582B0BC4A136810
:1042F00001331360002B6BD0BA4A1268111F8B4236
:1043000000D191E0101D834200D1A2E0B648101800
:104310004000834200D1B1E0901C4000834200D1B4
:10432000C1E0500094080019834200D1DDE0500044
:104330008018834200D1FAE00430834200D102E1C8
:1043400089008B4200D127E1511C89008B4200D1AA
:104350006CE1D1008B4200D18AE1D1008918043987
:104360008B4200D1B1E191008918490008398B4294
:1043700000D1D7E191008918490089180C398B4286
:1043800000D1FBE151008918890008398B4200D126
:1043900020E211018A1A93422CD1944B1B78032BF3
:1043A00006D0934B00221A601B68934200D133E27F
:1043B000904B1B78032B06D08D4B00221A601B6894
:1043C000934200D12EE2864B012252421A6011E044
:1043D000864A1370874A1370814A0121494211604D
:1043E000804A1268844908680093092108F090FC0B
:1043F000012801D002B010BD7A4B1A687F4B1868B3
:1044000000230093092108F083FC012803D1744B99
:1044100000221A60EEE7784B186800230093002210
:10442000082108F075FCE5E7704B1B78002B03D1E1
:10443000704B1B78002BDDD06D4B00221A601B687F
:10444000002BD7D1D9216E4B6E4A89006E4802F0FD
:104450008BFA664B1B78012B0BD0654B00221A6040
:104460001B68002BC6D1664B664A6849664802F055
:104470007BFA604B1B78012BEFD1BBE75B4B1B78C2
:10448000012B0BD05A4B00221A601B68002BB1D1B4
:104490005B4B5C4A5E495C4802F066FA554B1B7800
:1044A000012BEFD1A6E7514B1B78022B05D0504BC7
:1044B00000221A601B68002B10D04E4B1B78012B7A
:1044C00098D04B4B00221A601B68002B00D091E75C
:1044D0004B4B4C4A4F494C4802F046FAE121484BBD
:1044E000484A8900484802F03FFA404B1B78022BAB
:1044F00005D03F4B00221A601B68002B11D03D4BAA
:104500001B78012B00D175E7394B00221A601B681C
:10451000002B00D06EE73A4B3A4A3F493A4802F046
:1045200023FA374B374A3D49374802F01DFA334BDF
:104530001C6807F00FF802000023009306212000FA
:1045400008F0E6FB56E7294B1B78032B05D0284BD8
:1045500000221A601B68002B12D0264B1B78012BFF
:1045600005D0234B00221A601B68002B0ED0224B73
:104570001868002300930022082108F0C9FB39E7DE
:104580001F4B204A2649204802F0EEF91C4B1D4AD9
:1045900024491D4802F0E8F9144B1B78032B05D081
:1045A000134B00221A601B68002B11D0114B1B7893
:1045B000012B00D11EE70E4B00221A601B68002B56
:1045C00000D017E70E4B0F4A17490F4802F0CCF9FD
:1045D000F0210B4B0B4A89000B4802F0C5F9C0468D
:1045E000D4010020340C0220FEFFFF7F130E0220B6
:1045F000D8010020140E0220BC0C0220CC0C02209A
:1046000014E5001020E60010DCE400106E0300004A
:10461000790300008A0300009B030000950300005B
:10462000AB030000B1030000C6030000814B1B7800
:10463000032B05D0804B00221A601B68002B11D081
:104640007E4B1B78022B00D1D4E67B4B00221A60F4
:104650001B68002B00D0CDE6794B7A4A7A497B481B
:1046600002F082F9764B774A7949784802F07CF972
:10467000704B1B78032B05D06F4B00221A601B6810
:10468000002B15D06D4B1B78022B05D06A4B0022F6
:104690001A601B68002B11D06E4B1C6806F05AFF85
:1046A0000200002300930721200008F031FBA1E65F
:1046B000634B644A6849654802F056F9FA21604B39
:1046C000604A8900614802F04FF95A4B1B78032B6E
:1046D00005D0594B00221A601B68002B15D0574B90
:1046E0001B78022B05D0544B00221A601B68002B4C
:1046F00011D0584B1C6806F02DFF020000230093D8
:104700000721200008F004FB74E64D4B4D4A534945
:104710004E4802F029F9FF21494B4A4A89004B488B
:1047200002F022F9434B1B78032B05D0424B0022A9
:104730001A601B68002B15D0404B1B78022B05D04C
:104740003D4B00221A601B68002B11D0414B1C68A6
:1047500006F000FF0200002300930721200008F06C
:10476000D7FA47E6364B374A3D49384802F0FCF85D
:10477000334B344A3B49354802F0F6F82D4B1B7851
:10478000032B05D02C4B00221A601B68002B15D080
:104790002A4B1B78022B05D0274B00221A601B687E
:1047A000002B11D02B4B1C6806F0D4FE0200002316
:1047B00000930721200008F0ABFA1BE6204B214AAA
:1047C0002949224802F0D0F81D4B1E4A27491F48AC
:1047D00002F0CAF8174B1B78032B05D0164B0022AA
:1047E0001A601B68934211D0144B1B78032B00D125
:1047F00000E6114B00221A601B68934200D0F9E5D5
:104800000F4B104A1A49114802F0AEF80C4B0D4AF2
:1048100018490E4802F0A8F8094B0A4A16490B48F5
:1048200002F0A2F88921064B064AC900074802F0A7
:104830009BF8C046130E0220D8010020140E02205F
:1048400014E5001020E60010D7030000DCE400109F
:10485000D1030000CC0C0220E2030000F6030000AC
:10486000090400000F0400001C04000022040000E2
:1048700037040000310400004204000010B500209D
:1048800007F05EF9024A136801331360F7E7C04688
:10489000F00A022010B5040002E0104B00221A605A
:1048A000002007F04DF901214942200005F088FF62
:1048B000012807D0094B1B68002BEED1084B0122C1
:1048C0001A60EDE7002300220021200005F0B4FC6F
:1048D0000128E5D0024B01221A60E1E73C0C0220DE
:1048E0008C0C022070B504000D00002105F068FF5B
:1048F000012802D0374B01221A60374B00221A6080
:10490000002006F0FBFC002802D0324B01221A6086
:10491000324E306806F07CFD306806F09BFC0228C1
:1049200050D1002006F0EAFC032802D0294B0122D6
:104930001A602B4B186806F06BFD274B1B68002B89
:1049400002D0244B01221A600021280005F038FF14
:10495000012802D01F4B01221A60002300220021EF
:10496000280005F069FC012802D01A4B01221A60C8
:10497000194B1B68002B02D0164B01221A60002035
:1049800006F0BCFC032802D0124B01221A6000235F
:1049900000220021200005F04FFC012802D00D4B21
:1049A00001221A600C4B1B68012B02D0094B01221B
:1049B0001A60002006F0A2FC002802D0054B01225C
:1049C0001A6070BDCC21074B074A8900074801F0E7
:1049D000CBFFC0468C0C0220F00A0220A80C02205B
:1049E000F80C0220C4E70010C4E80010F8E700103B
:1049F00070B504000D00002105F0E2FE012802D090
:104A00003E4B01221A603E4B00221A60002006F045
:104A100075FC002802D0394B01221A60394E3068EB
:104A200006F0F6FC306806F015FC022860D1002084
:104A300006F064FC032802D0304B01221A600121E9
:104A4000002006F06BFC002006F058FC032802D082
:104A50002A4B01221A602C4B186806F0D9FC284B0F
:104A60001B68002B02D0254B01221A600021280070
:104A700005F0A6FE012802D0204B01221A60002377
:104A800000220021200005F0D7FB012802D01B4B9B
:104A900001221A601A4B1B68002B02D0174B01220F
:104AA0001A60002006F02AFC032802D0134B0122D2
:104AB0001A60002300220021280005F0BDFB012818
:104AC00002D00E4B01221A600D4B1B68012B02D045
:104AD0000A4B01221A60002006F010FC012802D0C7
:104AE000064B01221A600021002006F017FC70BD61
:104AF000064B074A0749084801F036FF8C0C022094
:104B0000F00A0220A80C0220F80C0220C4E70010D2
:104B1000E8E80010AB020000F8E7001070B50400F0
:104B200005F03AFB002802D0794B01221A600021DF
:104B3000200005F045FE012802D0754B01221A60C5
:104B4000200005F029FB050007F05AFA854202D043
:104B50006F4B01221A60002006F0D0FB002802D023
:104B60006B4B01221A606B4B186806F051FC002059
:104B700006F0C4FB032802D0654B01221A60664B85
:104B8000186806F045FC002006F0B8FB032802D0A8
:104B90005F4B01221A60614B18680723184006F02A
:104BA000BBFE5F4B01221A605A4B186806F0FAFEF2
:104BB000012806D0564B01221A6002E0022006F0BE
:104BC000ABFE002006F09AFB0228F7D1544B0122DD
:104BD0001A60514B186806F0E5FE012806D04C4BD0
:104BE00001221A6002E0022006F096FE002006F084
:104BF00085FB0028F7D1200005F0EAFA050007F050
:104C0000FFF9854202D0424B01221A6000230022A4
:104C10000021200005F010FB200005F0D9FA002843
:104C200002D03B4B01221A60394B1B68002B35D157
:104C30000021200005F0C4FD012802D0344B0122E0
:104C40001A60002006F05AFB002802D0304B0122E7
:104C50001A60314B186806F0DBFB002006F04EFBB3
:104C6000022802D02A4B01221A602A4B186806F04B
:104C7000CFFB002006F042FB032802D0244B012288
:104C80001A60274B01221A60224B186806F08AFE30
:104C900001280DD01E4B01221A6009E08D21214B05
:104CA000214A8900214801F05FFE022006F034FE0F
:104CB000002006F023FB0228F7D1194B01221A60CD
:104CC000154B186806F06EFE012806D0104B012225
:104CD0001A6002E0022006F01FFE002006F00EFB24
:104CE0000028F7D1002300220021200005F0A4FABB
:104CF000074B1B68002B04D1084A1368013313606B
:104D000070BD084B084A0A49084801F02DFEC0460C
:104D10008C0C0220A80C0220A40D0220A40B02205F
:104D20003C0C022030E80010ACE80010F8E700105E
:104D30008202000070B50500012005F051FB061E3F
:104D400012D031002800FFF753FE0A4C23680133CC
:104D5000236031002800FFF7C5FD2368013323607D
:104D60002800FFF7DBFEECE7034B044A0449054843
:104D700001F0FAFD280B022058E8001010E900109D
:104D800096030000F8E7001010B584B00400F0E0CE
:104D90000023002203A9200005F04EFA039B0133F3
:104DA0000393039B042BF3D9200005F051FF032844
:104DB00002D09C4B01221A6001230393002203A915
:104DC000200005F039FA002303930133002203A9E0
:104DD000200005F031FA200005F03AFF052802D046
:104DE000904B01221A600123002203A9200005F044
:104DF00023FA002802D08B4B01221A6000230022E4
:104E000003A9200005F018FA002802D0854B0122E2
:104E10001A600023039301E001330393039B042BE7
:104E200024D8002202A9200005F0C2FD012802D0EA
:104E30007C4B01221A60029B039A9A4202D0794A63
:104E400001211160DB430293002202A9200005F03A
:104E50000FFC012802D0734B01221A60039B029AB7
:104E60009342D9D06F4A01211160D5E7200005F0A7
:104E7000EFFE002802D06B4B01221A600A23039335
:104E80000023002203A9200005F0D6F9012802D052
:104E9000644B01221A600B2303930023002203A911
:104EA000200005F0C9F9012802D05E4B01221A60EA
:104EB000200005F0CDFE022802D05A4B01221A60D4
:104EC0000923039302E0039B013B0393039B062BFF
:104ED0000BD90123002203A9200005F0ADF9012818
:104EE000F1D0504B01221A60EDE7200005F0B0FE32
:104EF000052802D04B4B01221A600123002203A98E
:104F0000200005F099F9002802D0464B01221A60D2
:104F10000023002203A9200005F08EF9002802D00A
:104F2000404B01221A600723039301E001330393EE
:104F3000039B0B2B11D8002202A9200005F098FB3F
:104F4000012802D0374B01221A60039B029A934238
:104F5000ECD0344A01211160E8E7200005F078FE2A
:104F6000002802D02F4B01221A602F4A1368013308
:104F700013602D4B1B6801930123002201A920001F
:104F800005F05AF9200005F063FE012802D0254BF8
:104F900001221A60002203A9200005F069FB012804
:104FA00002D0204B01221A601F4B1B68039A9342C8
:104FB00002D01C4B01221A60200005F049FE002897
:104FC00002D0184B01221A60174B1B680193002373
:104FD000002201A9200005F02FF9200005F038FE7D
:104FE000012802D00F4B01221A60002203A92000E1
:104FF00005F03EFB012802D00A4B01221A60200076
:1050000005F026FE002802D0064B01221A60064B4E
:105010001B68039A934202D0024B01221A600223BA
:105020000393BEE68C0C0220240B0220F0B583B063
:10503000050000220421052005F068F8041E0CD0AC
:105040001F4905F051FE80220023019300952300A3
:1050500052001C491C4806F06DF8012005F0C0F90B
:10506000041E2BD0194905F03FFE80256D0000235A
:105070000193009323002A001549164806F05AF8B8
:10508000154B01930227009700232A001349144867
:1050900006F050F8134E144B0193032300932300A2
:1050A0002A001249300006F045F8114B0193009791
:1050B00023002A000F49300006F03CF803B0F0BD91
:1050C00064E8001074E80010894D00107CE80010BE
:1050D0008CE80010354D0010F80C022094E8001008
:1050E0007D48001095480010A80C02209CE8001094
:1050F000A40D0220A4E80010104B1A68104B1B6886
:105100009A4212D00F4B1A680F4B1B689A4210D06C
:105110000B4B1A68094B1A600B4B1A68094B1A6043
:105120000A4B1868434258417047084B01221A60E5
:10513000E8E7064B01221A60EAE7C046000B0220AE
:10514000240B0220080B0220280B02208C0C0220CA
:10515000F0B5C64600B582B0FA20800006F0DCFB50
:1051600006F0FEF9134B1860002006F0C7F80700A0
:10517000FA20800006F0D0FB0F4C002398462360F5
:10518000802676000D4D0194009732000C492800CE
:1051900005F0D0FF434601930097230032000949F0
:1051A000280005F0C7FF084A138801339BB213801B
:1051B000DEE7C046C80B0220580C0220CD5100107B
:1051C00028E9001030E900100E0E022010B582B060
:1051D000041E0AD0046808E0002006F09DFB2000B1
:1051E00005F0D8FF002005F0D5FF022301935733C7
:1051F0000093019B009A53430093C82006F08CFB58
:10520000002CE9D1F1E7000000B583B09E22002315
:105210000193009052000349034805F08BFF03B04F
:1052200000BDC04638E900105151001010B5104BB8
:105230001A88104B1B889BB29A4213D00D4B1A88C8
:105240000B4B1A80012406F08BF90B4B18600B4BAB
:105250001B68984208D3094B1B68C01A032804D95D
:10526000002402E00024EEE70024200010BDC04628
:10527000DC0100200E0E0220CC0B0220C80B022005
:10528000F0B583B0050004F041FA274A17883FB211
:1052900013881BB201331BB2138004F057FA6C68F9
:1052A000AB68002B03D0214B0193002630E0FF2395
:1052B0000193FAE72268019B9A4200D0012600235D
:1052C00000E00133019A9A4205D3236022689A4292
:1052D000F7D00126F5E7002300220021286804F01A
:1052E000ABFF00280BD0002E0AD1032F08DC104A98
:1052F00079008B5A1BB201331BB28B5200E001269E
:10530000AB68002B04D09800C018400006F004FBE6
:10531000A968286805F054FA0128CBD0AB68002BA7
:10532000F6D104F0D3F9F3E70C0E0220FF0F0000D2
:1053300008070020F0B5C64600B582B005000C2075
:1053400007F07CFE041E2BD003220021012004F074
:10535000DDFE2060002823D000230022002104F07D
:105360006BFF042007F06AFE6060FF2303600026E5
:10537000A66001339846264F0196009623004246C8
:105380002449380005F0D6FE0196009623004246D7
:105390002149380005F0CEFE2068204905F0A4FC24
:1053A0000C2007F04BFE041E2ED00322002101200A
:1053B00004F0ACFE2060002826D00023002200214B
:1053C00004F03AFF042007F039FE6060144B0360DC
:1053D0006423A36080277F000D4E0023984601932D
:1053E000009523003A000F49300005F0A3FE434624
:1053F0000193009523003A000B49300005F09AFE16
:1054000020680A4905F070FC02B080BCB846F0BDC7
:105410008152001040E9001048E9001034D7001014
:10542000FF0F000050E9001058E9001044D70010A9
:1054300010B50120002305E05A000949545A0949D2
:105440008C520133032B09DC5A000649515E044C8F
:10545000125B12B29142EFD10020EDE710BDC046C1
:10546000080700202007002030B583B004006B46F9
:105470000022DA80002500E00125002362686946E9
:105480000631206804F0D8FE0128F5D1002D05D1A1
:10549000A26813881BB201331BB213806B469A1D9E
:1054A000DB8801331380E8E770B582B00400002682
:1054B000002501E01D00012662686B46991D2068E9
:1054C00005F0D6F80128F7D16B4606331B88AB42AE
:1054D000F0D1002E05D1A26813881BB201331BB294
:1054E00013800135ADB2E7E7F0B5DE4657464E46CC
:1054F0004546E0B585B083460C2007F09FFD0700C8
:1055000000220221012004F001FE3860FA229200FC
:1055100091467A603F4ABA600C2007F08FFD050083
:105520003A680260002444603B4A904682608026CC
:1055300076003A4A924601945B46039300933B00FF
:1055400032003749504605F0F5FD364A934601943E
:1055500000942B0032003449584605F0EBFD0C2036
:1055600007F06CFD050000220221012004F0CEFDB1
:1055700028606C604246931CAB600C2007F05EFD17
:1055800007002A6802604A464260224A931C8360F0
:10559000019400942B0032002449504605F0CAFDC6
:1055A0000194039B00933B0032002149584605F0CB
:1055B000C1FD0C2007F042FD05000022022105205C
:1055C00004F0A4FD28604B466B6043460433AB6097
:1055D0000C2007F033FD07002B6803604B46436047
:1055E0000C4B04338360019400942B00320011496A
:1055F000584605F09FFD019400943B0032000E498F
:10560000504605F097FD05B0F0BCBB46B246A94632
:10561000A046F0BDF806002000070020A9540010A5
:1056200060E900106954001068E9001070E900108A
:1056300078E9001080E9001088E9001010B5002218
:10564000012007E000200FE053000F495C5A0F498A
:10565000CC520132022A15DC53000D49595A09B2C5
:105660000C4C1B5F9942EDD0530009495C5A094923
:10567000CC520549595A09B2044C1B5F9942E3D1F7
:105680000020E1E710BDC0460007002018070020F9
:10569000F806002010070020F0B58BB00700244A60
:1056A000244B08920993244A244B06920793244AD8
:1056B000244B0492059308980999069A079B03F0D6
:1056C00023F9049A059B03F046F900900191002606
:1056D00000E00126164A174B08920993164A174B09
:1056E00006920793164A174B049205930898099956
:1056F000069A079B03F008F9049A059B03F02BF91F
:105700000290039102980399009A019B03F0F3F829
:1057100005004C000C4A0D4B2800610803F074F999
:105720000028D6D1002ED5D101233B80D2E7C04638
:105730005305A3923ADD5E4082E2C7985B53A240D4
:10574000B29DEFA7C6B18CC0FCA9F1D24D62503F0B
:10575000F0B58BB00700244A244B08920993244AE1
:10576000244B06920793244A244B049205930898ED
:105770000999069A079B03F0D0F8049A059B03F059
:10578000EAF800900191002600E00126164A174B26
:1057900008920993164A174B06920793164A174B1D
:1057A0000492059308980999069A079B03F0B5F8A7
:1057B000049A059B03F0CFF8029003910298039995
:1057C000009A019B03F097F805004C000C4A0D4B22
:1057D0002800610803F018F90028D6D1002ED5D191
:1057E00001233B80D2E7C046AE47E17A145678C029
:1057F000CDCCCCCC8CBCDF4039D6C56D340000C0DC
:10580000FCA9F1D24D62503FF0B5C64600B586B056
:105810008046502007F012FC0600002700E0012718
:10582000002200230492059302920393002411E0C6
:10583000200003F0FDF8E50075191C4A1C4B03F02D
:105840008AF828606960049A059B03F05DF804906B
:1058500005910134092CEBD900240AE0E300F31888
:105860001A685B680298039903F04EF8029003915E
:105870000134092CF2D904980599029A039B03F08C
:105880003AF800900191009A019B14005D00094ACA
:10589000094B2000690803F0B7F80028BFD1002F9A
:1058A000BED1012342461380BAE7C046E5D022DBD1
:1058B000F93E2840FCA9F1D24D62503FF0B5C646F2
:1058C00000B586B08046502007F0B8FB06000027E0
:1058D00000E0012700220023049205930292039323
:1058E000002411E0200003F0A3F8E5007519002260
:1058F0001B4B03F009F828606960049A059B03F0CC
:1059000003F8049005910134092CEBD900240AE036
:10591000E300F3181A685B680298039902F0F4FF39
:10592000029003910134092CF2D904980599029A46
:10593000039B02F0E0FF00900191009A019B14008C
:105940005D00084A084B2000690803F05DF8002854
:10595000BFD1002FBED1012342461380BAE7C04613
:1059600000001640FCA9F1D24D62503FF0B583B063
:105970000500134C80267600002701970090230035
:1059800032001049104805F0D5FBA31C0197009583
:1059900032000E490E4805F0CDFB231D01970095FE
:1059A00032000C490C4805F0C5FBA31D019700957A
:1059B00032000A490A4805F0BDFB03B0F0BDC046FD
:1059C0005C0B022090E900109956001098E9001035
:1059D00051570010A0E90010BD580010A8E90010B0
:1059E0000958001010B50023012003E05A000024DC
:1059F00054520133032B06DC5A000349525A012A40
:105A0000F4D00020F5E710BD5C0B022010B5830038
:105A1000084A944663441C6840226240C0241440F3
:105A20008022520113431C60C000034B9C4660441B
:105A3000416010BD04C001400040014010B5012389
:105A40008340D0221206936293610521FFF7DEFFA7
:105A500010BD0000EFF3108072B6034B1B68002BE3
:105A6000FBD0BFF35F8F70472C0100D0BFF35F8F77
:105A7000024B00221A6080F3108870472C0100D07E
:105A8000F8B506000C001500FFF7E4FFE308F7186F
:105A9000F15C07222240012393400B4205D1DBB287
:105AA0000B433B70FFF7E2FFF8BD2100280000F038
:105AB000F5FF0000034B1B6802201840431E98416D
:105AC000C0B2704700C00640002307E0054A9A189C
:105AD0009200BFF35F8F0021116001331F2BF5D9B6
